:020000040800F2
:10000000FCFF0020A1040008F1040008F10400082E
:10001000F1040008F1040008F104000800000000E9
:10002000000000000000000000000000F1040008D3
:10003000F104000800000000F10400087126000827
:10004000F1040008F1040008F1040008F1040008BC
:10005000F1040008F1040008F1040008F1040008AC
:10006000F1040008F1040008F1040008F10400089C
:10007000F1040008F1040008F1040008F10400088C
:10008000F1040008F1040008F10400080000000079
:10009000000000000000000000000000F104000863
:1000A000F1040008F1040008F1040008F10400085C
:1000B000F1040008F1040008F1040008F10400084C
:1000C000F1040008F1040008F1040008F10400083C
:1000D000F1040008F1040008F10400080000000029
:1000E000F1040008F1040008F10400080000000019
:1000F000000000000000000000000000F104000803
:1001000000000000F1040008F1040008F1040008F8
:1001100000000000000000000000000000000000DF
:10012000F1040008F1040008F1040008F1040008DB
:10013000F1040008000000000000000000000000C2
:10014000000000000000000000000000451F000843
:10015000F1040008F1040008F1040008F1040008AB
:10016000F1040008F1040008000000000000000095
:10017000000000000000000000000000000000007F
:1001800000000000F1040008000000000000000072
:08019000F1040008F10400086D
:10019800034613F8012B002AFBD1181A01387047BF
:1001A80053B94AB9002908BF00281CBF4FF0FF31D6
:1001B8004FF0FF3000F06EB9ADF1080C6DE904CED8
:1001C80000F006F8DDF804E0DDE9022304B070472A
:1001D8002DE9F047089D04468C46002B40F08380AB
:1001E8008A42174647D9B2FA82F242B1C2F12000D8
:1001F80024FA00F09140974040EA010C94404FEAFD
:100208001748230CBCFBF8F61FFA87FE08FB16C13B
:1002180043EA014306FB0EF1994209D9FB1806F19E
:10022800FF3080F01981994240F21681023E3B442A
:100238005B1AA4B2B3FBF8F008FB103344EA03449A
:1002480000FB0EFEA64509D93C1900F1FF3380F0EA
:100258000581A64540F2028102383C4440EA064046
:10026800A4EB0E0400261DB1D4400023C5E90043C9
:100278003146BDE8F08702B9FFDEB2FA82F2002A01
:1002880050D1CB1B4FEA174E1FFA87F80126B3FB54
:10029800FEFC210C0EFB1C3341EA034108FB0CF366
:1002A8008B4207D979180CF1FF3002D28B4200F249
:1002B800E9808446C91AA3B2B1FBFEF00EFB101107
:1002C80043EA014408FB00F8A04507D93C1900F1AE
:1002D800FF3302D2A04500F2D9801846A4EB0804E7
:1002E80040EA0C40BFE78B4209D9002D00F0B180ED
:1002F8000026C5E9000130463146BDE8F087B3FA6B
:1003080083F6002E4AD18B4202D3824200F2B88093
:10031800841A61EB030101208C46002DA8D0C5E9A1
:10032800004CA5E7C2F1200320FA03F6974001FA32
:1003380002F04FEA174ED9403043030CB1FBFEF6EA
:100348001FFA87F80EFB161143EA014306FB08F172
:10035800994204FA02F409D9FB1806F1FF3C80F02F
:100368008D80994240F28A80023E3B445B1A81B2FA
:10037800B3FBFEF00EFB103341EA034100FB08F328
:100388008B4207D9791800F1FF3C73D28B4271D99F
:1003980002383944CB1A40EA064678E7C6F1200C01
:1003A80003FA06F422FA0CF31C4320FA0CF701FABC
:1003B80006F34FEA144E21FA0CF11F433B0CB1FB34
:1003C800FEF91FFA84F80EFB191143EA014109FBF3
:1003D80008FA8A4502FA06F200FA06F308D9611803
:1003E80009F1FF3048D28A4546D9A9F102092144CA
:1003F800A1EB0A01BFB2B1FBFEF00EFB101147EAF8
:10040800014700FB08F8B84507D9E71900F1FF31A3
:100418002ED2B8452CD90238274440EA0940A7EB28
:100428000807A0FB02894F45C64649461AD317D08C
:100438005DB1B3EB0E0267EB010707FA0CFCF24063
:100448004CEA0202F740C5E9002700263146BDE81C
:10045800F0872E4628460BE70646E9E61846FDE6ED
:100468004345E5D2B8EB020E69EB04010138DFE73A
:100478000846D2E760468DE78146B9E7664675E7E4
:1004880030464AE7ACF1020C394413E702383C44E1
:1004980024E700BF704700BFDFF834D0002103E035
:1004A8000C4B5B58435004310B480C4B42189A4292
:1004B800F6D30B4A02E0002342F8043B094B9A4268
:1004C800F9D301F02BFD03F065F902F0FBF8704752
:1004D800FCFF00205C3B0008000000206C000020AE
:1004E8006C000020D41B0020FEE700F07F014B01C8
:1004F800C20903F1A04331D003F5106019B1D3F854
:100508000029002A13DBD3F8002942F00262C3F85D
:1005180000294FF0A0431A6942EA811119611A694A
:1005280042F020021A611A699006FCD47047D3F889
:10053800002942F00062C3F8002982685206FCD5FF
:10054800D3F8002942F0804242F40012C3F800298F
:1005580083689B07FCD502238360DAE703F53060E4
:1005680019B1D3F8002B002A06DBD3F8002B42F48C
:100578000012C3F8002B70474FF0A042D2F80418BD
:1005880041F40071C2F8041851690906FCD5D3F882
:10059800002B42F0804242F40012C3F8002B83681B
:1005A8009B07FCD502234FF0A0428360D2F80438A1
:1005B80043F48063C2F804387047000030B560B96E
:1005C8003A4B3B4D03EB011335F811405B89A342CD
:1005D80028BF2346E41A25F81140440101294FEAAF
:1005E800C24204F1A04131D11A43C1F81029D1F80F
:1005F800002942F00442C1F80029D1F8002902F488
:100608004022B2F5802F15D1284A02EB4012127F02
:10061800012A0FD14FF0A042D2F80848D1F800299A
:1006280014F4807F14BF4FF080544FF000542243DD
:10063800C1F800294BB14FF0A0420123D2F8341879
:1006480003FA00F00843C2F8340830BDD1F8104B63
:1006580004F06044C1F8104BD1F8104B2243134307
:10066800C1F8103BD1F8003B43F00443C1F8003B0C
:10067800D1F8003B03F44023B3F5802FE5D10B4BB1
:1006880003EB4010037B012BDFD14FF0A043D3F8DD
:100698000828D1F8003B12F4807F14BF4FF0805235
:1006A8004FF000521343C1F8003BCEE7541B002023
:1006B800121B0020F8B5054600F07F004400114EDB
:1006C800134604EBD51214010F4606EB02123751FC
:1006D8000024E9095460138138B90B4A22F8113013
:1006E8000122FFF76BFF0120F8BD5589B3FBF5F434
:1006F800A2B205FB1434A4B20CB9002BF1D101321B
:1007080092B2EEE7541B0020121B002070B52B4B51
:100718002B490022DA612B4A0E681446D568ED038E
:1007280044D4D168C90744BF0121D160E06810F4FE
:10073800F97042D0E268D60605D5DA6942F01002AF
:10074800DA611022E2601F4AD1688D0605D5D969A1
:1007580041F00801D9612021D160D1684C0605D546
:10076800D96941F00401D9614021D160154AD168A5
:10077800080605D5D96941F00201D9618021D16007
:10078800D168C90506D5D96941F00101D9614FF48D
:100798008071D1600B49CA68920705D5DA6942F0C1
:1007A8002002DA610223CB60012006E0451CB5D0A7
:1007B8000D68AD1B8542B1D9032070BD301B0020E8
:1007C800501B0020003C0240064B1A69002ABFBF9C
:1007D800054A5A6002F188325A60BABF1869C00FD8
:1007E80000207047003C0240230167452DE9F74F80
:1007F800DFF884C15E4ADFF8849100234FF00108D6
:100808000D6808FA03F404EA0506AC4340F0A0803A
:100818004D6825F010055F004FF0030E013D0EFAFC
:1008280007FE012D6FEA0E0E0FD88468CD6804EA22
:100838000E04BD40254385604D684468C5F3001526
:1008480024EA06049D4025434560C4688D6804EA8F
:100858000E04BD402543C5604C6824F01004022CEA
:1008680014D14FEAD30A00EB8A0A03F0070BDAF82F
:1008780020504FEA8B0B0F2404FA0BF425EA0404EA
:100888000D6905FA0BF52543CAF82050046804EAF7
:100898000E0E4C6804F00304BC4044EA0E040460E5
:1008A8004C68E50054D54FF0000BCDF804B0DCF8E7
:1008B8004450304C45F48045CCF84450DCF8445062
:1008C80005F480450195019D23F0030505F1804558
:1008D80005F59C3503F0030ED5F808A04FEA8E0EF7
:1008E8000F2707FA0EF7A0422AEA070737D004F5C0
:1008F8008064A04235D004F58064A04233D04845D6
:1009080033D004F50064A0420CBF0424072404FA81
:100918000EF43C43AC604C681768F543E40354BFDD
:100928002F40374317604C685768A40354BF2F40C3
:10093800374357604C689768E40254BF2F403743E9
:1009480097604C68D768A40254BF2F403743D760DC
:100958000133102B7FF454AF03B0BDE8F08F5C4631
:10096800D5E70124D3E70224D1E70324CFE700BF6A
:10097800003C01400000024000380240000C0240E8
:10098800024A136823F001031360704710E000E087
:100998000A4B4FF47A721B68B3FBF2F358430138E1
:1009A800B0F1807F09D2064B064A5860F02182F8E0
:1009B800231000229A6007221A6070470000002066
:1009C80010E000E000ED00E0034B1B68DB0700D5FA
:1009D80000BE0020704700BFF0ED00E00B68024940
:1009E8000B610021184700BF7800002010B50C4C9F
:1009F80001F07F0304EB430404EBD1140846E37FC2
:100A08009B0704F1180409D4FFF76FFDE37943F05D
:100A18000203E371E37943F00103E37110BD00BF02
:100A2800F811002030B4104B02249A6B83F82C1074
:100A3800996883F8304093F83C408A1A9A6224B93E
:100A480042F205059D8783F83E4051B14AB11A7BB1
:100A5800D20930BC14BF93F82E1093F82F10FFF76B
:100A6800C5BF30BC704700BF68110020084610B5EC
:100A7800124C11461A4600F07F0304EB430404EBC2
:100A8800D0141834E379DB0703D5BDE81040FFF72D
:100A98009BBFE37943F00103E371FFF70BFE60B9F5
:100AA800E37960F30003E371E37960F38203E371B0
:100AB800034B1B68DB0700D500BE10BDF8110020F2
:100AC800F0ED00E038B5144B144C054673B1607B6B
:100AD800AFF3008050B942F2077384F83E00A38751
:100AE80028460121BDE83840FFF79CBFA26BA368E8
:100AF80094F82F109B1AB3F5805F28BF4FF48053EA
:100B0800074A9BB22846FFF7B1FF20B9054B1B687F
:100B1800DB0700D500BE38BD0000000068110020CA
:100B280068010020F0ED00E070B5134A957856781A
:100B38008D420BD08E4217D1104A0AB9012070BDE0
:100B48000F49DAB20020AFF30080F7E7AE42F3D0E6
:100B580040234832FFF78AFF0028EFD1094B1B6872
:100B6800DA0706D500BEEAE7064B1B68DB0700D5A7
:100B780000BE0020E3E700BFD40000200000000012
:100B8800DC000020F0ED00E030B40A4C05460A46CF
:100B980008684968234603C30023C4E9023392F96D
:100BA80000209A4228461A4630BCACBF802119461C
:100BB800FFF75CBF780000202DE9F04F85B01D4697
:100BC8000E9B0293DFF8DC810F9B734E03939346D1
:100BD8000027BB4501DC01200EE04B78052B04D132
:100BE800CB7803F00303AB4209D06B4B186810F0C5
:100BF800010001D000BE002005B0BDE8F08F91F8DB
:100C080002C00CF07F04052C05D9634B1B68DB0779
:100C180021D500BE1FE0614B88889B78022DC0F368
:100C28000A000BD0032D6DD0012D10D1022B40F2FC
:100C3800FF3308BF4FF48063984212E0022B0FD1B4
:100C4800B0F5007F0ED03368DA0700D500BEFFF795
:100C5800BBFE00284CD105B0BDE8F04FFFF7B4BE8D
:100C68004028F0D81CF07C0FCFD1630003EBDC13D5
:100C780008EB031358818A791A73C21C4FEA920E43
:100C88005FEADC13CDF804E042D14FF0A040734690
:100C98005A00436A1732934206D2414B1B881344C9
:100CA800B3F5A07FB1DC4262C878620102F1A042CC
:100CB80000F0030C6046D2F8003B012814BF4FF047
:100CC8008050002043EA8C43034308EB44104089DA
:100CD800034343F40043C2F8003B4FF0A04304F140
:100CE8001000D3F81C28012484401443C3F81C487E
:100CF8008B78DA0914BF039A029A13700B780137BC
:100D0800194466E7022B0CBF4FF48063402393E736
:100D1800DFF88C904FF0A043B9F800A05A6A0AEBAC
:100D28000E0C9444BCF5A07F3FF66FAF019A524475
:100D380092B24FEA840CA9F800200CF1A04CC2F53D
:100D4800A07242EA0E42CCF800214FEA441C91F806
:100D580003E00CF1A04C0EF0030ADCF80099A205A0
:100D680042EA8A42BAF1010F40EA090042F400421D
:100D7800D64642EA000214BF4FF0805E4FF0000EE4
:100D880042EA0E02CCF80029D3F81C08012202FA24
:100D980004F40443AAE700BFF0ED00E0F8110020D6
:100DA8006C000020541B002073B54B79082B0546B6
:100DB80002D0002002B070BD8B79062BF9D1CB7917
:100DC800502BF6D1162A05D8174B1B68D907F0D532
:100DD80000BEEEE7154C8B7884F82D3004F12E0315
:100DE8000E78019304F12F03009302231A4631442D
:100DF800FFF7E2FE28B90C4B1B68DA07D9D500BE0D
:100E0800D8E7002384F8303094F82F101F232246A7
:100E18002846FFF72BFE20B9034B1B68DB0700D5DC
:100E280000BE1720C6E700BFF0ED00E06811002003
:100E38002DE9F3414B79032B06460D4604D00024D7
:100E4800204602B0BDE8F0810C79C4EBC40412342A
:100E5800A4B2A24205D2214B1B68DA07EFD500BE27
:100E6800EDE71F4A92F801E01746BEF1000FF2D1F4
:100E780091F800C0614491F80180B8F1210FEAD1DE
:100E8800C2F8881015F80CC002F1010E0232009267
:100E9800CDF804E02A796144FFF78EFE0028DAD005
:100EA800AB79B978012B04BFEB79FB7001233B7157
:100EB800AB783B70D7F88830B3F80730FB8000294F
:100EC800BED0084A40233046FFF7D0FD0028B7D1EE
:100ED800024B1B68DB07B3D500BEB1E7F0ED00E0BD
:100EE800D40000201C0100200B4B63B10B4B1B7876
:100EF800834206D90A4B1B6800EB400003EBC00095
:100F08007047C01AC0B2012803D8064B00EB400056
:100F1800F4E70020704700BF0000000074000020C4
:100F280070000020C838000808B5064B01220520CB
:100F38001A60FFF72DFD044A044B11889278198036
:100F48009A7008BD64010020103800086001002074
:100F580002484022002102F04FBC00BF6811002067
:100F680002484022002102F047BC00BF681100205F
:100F780002488C22002102F03FBC00BFD4000020B0
:100F88000020FFF7F5BF000070B5114E054600249C
:100F98002046FFF7A9FF436828469847337801346D
:100FA800E4B20133A342F3DA0A4C2B220021204693
:100FB80002F022FC1022FF21E01C02F01DFC4FF081
:100FC800FF33C4F81330C4F81730C4F81B3070BDB1
:100FD80074000020F811002037B514490446CA8966
:100FE800888991F90050831A9BB2402B28BF40236F
:100FF800002D10DA904214D01A4689680C480193E3
:1010080002F0ECFB0A4A019B8021204603B0BDE8B0
:101018003040FFF72BBD90424FF0000103D1002272
:10102800F3E78021FBE7024AEFE700BF78000020E2
:10103800B8110020F8B5194E0C46054608684968ED
:10104800B260374603C70021F181E1888B4228BF8F
:101058000B46B381E18879B143B13AB9104B1B68AB
:10106800DA0701D40020F8BD00BEFBE72846FFF7E9
:10107800B3FF68B10120F6E794F90030002B0A4667
:101088000B462846ACBF80210021FFF7EFFCF0E7B4
:10109800034B1B68DB07E5D500BEE4E778000020BA
:1010A800F0ED00E073B50646154699B9137803F0DC
:1010B8007F02022A43D16C78012C40D16A88002A29
:1010C8003DD13B4AA98892F83030042BC9B203D1EC
:1010D800FFF78CFC012017E092F82E40A14215D1B1
:1010E800022BF7D19368946B1B1B9362032382F83E
:1010F80030300D232032FFF7B9FC0028EAD12D4B00
:101108001B68DB0751D500BE02B070BD92F82F00F6
:101118008142DFD1002BDDD1274A00F07F0302EBAB
:10112800430303EBD0131833DA79D107D2D4DB7930
:101138009A07CFD401461E4A1F233046DBE703F047
:101148006003202B31D16B78FE2B13D0FF2B2CD1D1
:101158006B8853BBE9888AB23ABB154B30469987EE
:101168002946C3E90D2283F8302083F83E20FFF793
:101178000BFDAFE76B88C3B9EB88012B15D18DF850
:1011880007300E4B1BB1AFF300808DF807009DF8B8
:10119800073053B1013B8DF807300DF107020123E9
:1011A80029463046FFF746FF94E70020ACE700BF2A
:1011B80068110020F0ED00E0F811002000000000A8
:1011C8002DE9F0411446127802F01F05012D06465C
:1011D8000B4602D00020BDE8F0814649A78891F867
:1011E80000C0FFB2BC450F46F4D112F060021FD018
:1011F800202AEFD16278013A0A2AEBD801A151F8E6
:1012080022F000BF71120008BF120008C9120008BE
:10121800DD110008DD110008DD110008DD110008EE
:10122800DD1100088F1200089D120008D312000873
:101238000BB10120CFE76378062BCBD163881B0A5B
:10124800212B09D1D1F88820002AC3D02146137850
:10125800BDE8F041FFF7EEBE222BBBD1264ACB8872
:101268002146FFF7E7FEE4E7002BE2D16388DBB213
:10127800002B38D0E288012A35D9204A3B72012355
:1012880021463046EDE7002BD3D1E388402BA1D887
:101298001B4AF5E7002BCCD161881A4A090A7971F3
:1012A80022B11846AFF30080002893D0214630467B
:1012B800FFF76AFCBDE7002BBBD1134A0123DFE728
:1012C800002BB6D1114A0123DAE7002BEED0022B0E
:1012D800AFD161880E4BC9B23971002BA9D000205B
:1012E800AFF30080A5E70B4B1B68DB077FF572AFF8
:1012F80000BE6FE7D40000204A390008DC00002057
:101308001C01002000000000D9000020D8000020A7
:1013180000000000F0ED00E070B50446164652B932
:101328000378012B07D1214B0822C3F88820BFF38B
:101338004F8FBFF36F8F658AA28AADB292B2954282
:10134800A5EB020338BFE2899BB238BF9B1A2289FA
:1013580038BF9BB29A4225D1237B1BBBF6B916E056
:101368009B1A9BB29342FBD26289606802FB03001E
:1013780002F034FA6B1C9BB29D4202D8228A9A4230
:1013880002D2E28913449BB263826EB901262378A4
:10139800012B02D1054B08229A602EB9BDE8704096
:1013A800FFF712BB2B46DDE7012070BD00E100E02E
:1013B8001FB54378023B0A46032B12D8DFE803F037
:1013C8000224131B1D4B19786FF30001197019784B
:1013D80000246FF3410119705C70197864F382017D
:1013E8001970014623E0154B1978C90723D51978D8
:1013F80041F00401F4E711490B78DC071BD50B78A1
:101408006FF382030B70ECE70C490B785B0712D57E
:101418000B786FF382030B700023CDE9013303933C
:1014280003788DF8043005238DF8053001A9044BA5
:101438001868FFF771FF04B010BD00BFF811002055
:10144800241200201FB50023CDE9013301218DF8B6
:10145800050001A803938DF80430FFF7A9FF05B034
:101468005DF804FB1FB50024CDE901448DF80400A4
:1014780007208DF805008DF8081001A81946039279
:101488008DF80940FFF794FF04B010BD2DE9F04F27
:10149800B94FFB8AB9685BBA9BB287B0814613B172
:1014A800B1FBF3F39BB2BA6BD7F81150B2FBF3F66A
:1014B800A1EB0208B8F5805F28BF4FF480582DBA19
:1014C8003544AE4803FB16260021424602F094F943
:1014D800002E00F04181AA4B1B68DB0700D500BE37
:1014E80043F20333BB8701210023484687F83E3087
:1014F80007B0BDE8F04FFFF795BA4FF4007200212E
:10150800204602F079F96DBB9E4B224603F1380E56
:10151800186859689446ACE8030008337345624676
:10152800F6D118689B88ACF804305523CCF8000035
:1015380084F8FE31AA2384F8FF31013504F50074DC
:1015480006F50076B045D8D8002EC9DB97F82E10DE
:1015580040F0048133463246484607B0BDE8F04FB4
:10156800FFF780BFB5F5017F39D8691E864BB1F505
:10157800817F28BF6FF4817EB3F846C028BF05EB92
:101588000E010A020CF1010C204602F5807E13467A
:101598004FF0000A9C4503F1010394BFA0F800A096
:1015A80003809E4500F10200F4D131B9F82323707D
:1015B800FF2363704FF6FF736380734800214FF673
:1015C800FF7CC38A9A4204D89B1AFF2B98BF24F841
:1015D80013C00131032900F11800F2D1ADE7B5F5C8
:1015E800027F57D840F205239D42A6D1674923467A
:1015F80004F10B000A78002A45D0013103F8012BC9
:101608008342F7D12823E372614B1B681B0A5B02F4
:10161800039304F180015C4B059104F120024FF023
:10162800000A46F6E66B998ACDE9012102F10B0121
:101638009E4604919EF800C0BCF1000F25D00EF123
:10164800010E019901F801CB019101980499884292
:10165800F0D145F24B411182518211830299518395
:10166800D96882F80DA0A2F80EB0A2F814A0A2F8CA
:1016780016B069B11969D161059920328A4203F11E
:101688001803D0D159E72022B8E74FF0200CD8E74B
:101698000399F0E73F4B9D423FF64FAF3A496FF44D
:1016A800027C05EB0C0300228C46A5F20720B1F85A
:1016B80014E0864503D8B1F816E0864505D2013214
:1016C800032A01F11801F2D10222182101FB02CCF0
:1016D800022ABCF81410A3EB010303F1020014D092
:1016E800DCF81020B2EB402F4FEA40237FF625AFFD
:1016F800D21ADCF80C10B2F5007F28BF4FF4007244
:101708001944204602F06AF817E7214A03F5002336
:10171800126803F58173B2EB032F4FEA03217FF6BA
:101728000CAF1D4B236003F1144303F52C1303F690
:1017380002336360194BC4F8FC31120A4FF40053AA
:10174800A261A3604FF48072154B6061E160226171
:10175800E36104F12000D5E7084CF3E6074AB3B289
:101768004846FFF783F920B9054B1B68DB0700D50E
:1017780000BE07B0BDE8F08F6811002068010020A6
:10178800F0ED00E08738000820000020B23800089B
:10179800D0000020080101005546320A306FB10A16
:1017A800575A7557930813B501EB830304469942BA
:1017B8000BD112F0030206D0002301A8019302F016
:1017C8000DF8019B236002B010BD51F8040B206096
:1017D800EDE713B5930800EB8303984209D112F0A3
:1017E800030204D00B68019301A901F0F7FF02B0CE
:1017F80010BD0C6840F8044BEFE7000010B5194C19
:10180800227A32B1184B04221A60BDE81040FFF763
:10181800B7B823682BB3154B197861B11A70124BFE
:10182800032219201A60FFF7B3F8114A114B1188E7
:10183800927819809A70D4E900329A4211D30A4BEF
:1018480004221A60FFF79CF8BFF34F8F0A490B4B2D
:10185800CA6802F4E0621343CB60BFF34F8F00BF46
:10186800FDE710BDE8120020640100201C000020E4
:10187800163800086001002000ED00E00400FA05B9
:1018880008B5074B022201201A60FFF781F8054BC3
:10189800054A33F8031F11809B78937008BD00BF79
:1018A8006401002010380008600100202DE9F04F85
:1018B800B04C1E4694F83030012B97B0054600F026
:1018C8009A81032B00F0B282002B38D194F82F2094
:1018D8008A4201D0012013E01F2E03D12068A64AB6
:1018E800904210D094F82E100423284684F8303003
:1018F800FFF77CF894F82F102846FFF777F80020B8
:1019080017B0BDE8F08F9D4A22626268A06884F82B
:101918002C30C4E90923012284F83020E27BC4E991
:101928000D0302F0FD03282B3CD1E38A5BBA9BB27E
:1019380018BB002B6AD002212846FFF773F894F8E9
:101948003030022BC6D194F82E108D4B01F07F0257
:1019580003EB420303EBD1131833DB799B07B9D4AC
:10196800A368A26B934240F28782207BC00900F0F3
:1019780083822846FFF73AF8ACE7282A0CD1217B66
:10198800C909D8D0ABB19842D5D3282A40F03282C1
:101998002846FFF77BFDD2E72A2AF3D1217BC90924
:1019A800F0D0C8E7A0B1237BDB0911D1B0F5805F87
:1019B80001D90121C0E7734A83B22846FFF756F8D8
:1019C8000028BCD1704B1B68DF0798D500BE97E78D
:1019D800252A07D8192A1DD8032A00F0E580122ADB
:1019E80061D08AB194F83C100029E2D11E2A83B252
:1019F8001FBF42F2050284F83E104FF6FF71A2871E
:101A08008B4228BF0B4663BB0028D2D1022384F83F
:101A1800303094E7A2F11A030B2BE3D801A151F857
:101A280023F000BF471B0008111A0008ED19000831
:101A3800ED190008ED190008ED190008ED19000866
:101A4800ED190008ED190008831A0008ED190008BF
:101A58005D1A00084B4B4D4E4FF40032C3E900624B
:101A68000823A268002AA4D0934228BF13466363C0
:101A7800444A94F82E109BB29FE700220D92ADF8CD
:101A88003C2008228DF83720414A0E9202220DABE5
:101A98008DF83C20ADF83E2093E80700394E0C2322
:101AA80086E80700DDE73B4B0020CDE90D304FF01D
:101AB80020361022202111A8CDE90F6601F09CFEE6
:101AC800354A159610685168127A06AB03C31A7026
:101AD800324B09AA03F1080C1746186859681646CC
:101AE80003C6083363453246F7D1998818689B794D
:101AF8003060B180B37106A8294B0593FEF748FB07
:101B080006A902460FA801F069FE3846FEF740FB19
:101B18003946024611A801F061FE05A8FEF738FB18
:101B28000DAE024605A915A801F058FE0FCE154FB7
:101B38000FC70FCE0FC733683B60242391E70D9B77
:101B4800607B03F4000343F003030D93154B73B15B
:101B5800AFF300809DF8363080F0010060F3C713C2
:101B68008DF83630074B0D9A1A60042379E7012067
:101B7800F0E700BF681100205553424355534253C4
:101B8800F811002068010020F0ED00E000010108D4
:101B980000010109008002021938000822380008F3
:101BA800312E300000000000122200210DA801F0A3
:101BB80023FE94F83C0094F83D1094F83E208DF8EC
:101BC8004010F0238DF834304FF0000360F3030326
:101BD8008DF836300A238DF83B308DF841200DAE54
:101BE8000FCEAC4F0FC733683B800023A38784F820
:101BF8003E30122335E7E27B282A07D1A36B1E4427
:101C0800636BA6639E42BFF401AFC1E62A2A40F087
:101C1800F580DFF880A2002776E0DAF800209E4BF6
:101C28009A426DD103F11443DAF8042003F52C131A
:101C380003F602339A4263D1DAF8FC11974A9142CB
:101C48005ED1DAF8082022F4FF5222F01E02920434
:101C5800920CB2F5005F53D103F13943DAF81C2036
:101C680003F5C01303F510639A4249D1DAF80C3032
:101C78000093DAF810300293FEF7A6FD8848DFF8E3
:101C880044C24FF00062002150F8048B009B91463B
:101C98004244934211D283484FF0010C425C00F851
:101CA80001C079B19AB91046804510D950F8092079
:101CB800013240F00B810430F6E70131182901D0D8
:101CC8006245E1D9784A1268D10700D500BE0AF109
:101CD8001C03DFF8F491DFF8D4B101934FF000084A
:101CE800029B434503DD99F8181001291AD16F4961
:101CF8000A6942F000420A61DAF8180000284CD15B
:101D08000AF5007A07F50077BE4286D8A36B002F44
:101D18001E44A6636ADA43F20333A387002384F8D8
:101D28003E3046E6019B012053F8041F89F818004D
:101D38004CF2503003910193FEF7E8FCF8B9DBF858
:101D4800100020F44070CBF81000DBF8100040F4CD
:101D58000070CBF81000DBF8100040F00100CBF861
:101D68001000009B039948F803104CF25030FEF71E
:101D7800CDFCDBF8101021F00101CBF81010002188
:101D880089F818100028B2D14FF0FF30FEF7BEFCDA
:101D98000028ACD108F10408A2E7454A1368984224
:101DA800114607D044F2630E704500D80BB14FF0CE
:101DB800FF301060DAF8143044F2630083429FD891
:101DC80001EBD3014FF0010C91F809E003F0070093
:101DD8000CFA00F010EA0E0F5FFA80FC90D14CEA82
:101DE8000E00487251680131516089E7636B9E4269
:101DF800BFF40CAE2846FEF765FEA0E5A36B1E44B3
:101E0800237BA663DB0906D11E2A1EBF42F2050208
:101E1800A28784F83E30636B9E42BFF4F7AD224B35
:101E28001B68DA077FF58BAD00BE88E594F82E3085
:101E38008B427FF484AD0D2E7FF481ADE37B282B9C
:101E480009D02A2B14D01B4B53B1607B04F10F012E
:101E5800AFF3008004E0184B13B1607BAFF3008050
:101E6800002384F83030154A94F82F101F23A4E576
:101E7800607BFFF7C3FCF3E79B1AA362032384F894
:101E880030300F4A0D232846FEF7F0FD00287FF476
:101E980021AD97E5680100205546320A306FB10A36
:101EA800D83A0008161B0020F0ED00E0003C024084
:101EB800E812002000000000000000006811002067
:101EC80088110020FFFF0708301B0020124A106904
:101ED80020F440701061106940F4007010611069BE
:101EE80020F0F8001061106940EAC10141F00201D8
:101EF8001161116941F4803111614FF0FF30FEF733
:101F080005FC002151F8092001327FF4DBAE0431D1
:101F18008845F7D8DBE600BF003C0240054BD3F804
:101F2800882042F47002C3F888204FF000629A605B
:101F3800704700BF00ED00E0704700002DE9F04F4A
:101F48004FF0A0448BB06269A36902EA030A1AF44D
:101F5800805F42D04FF4805363618022A6480021FD
:101F680001F04AFCA54A00231370D4F8002822F493
:101F7800FE62C4F800285A0102F1A0420133D2F8E7
:101F8800001B042B41F00061C2F8001BF3D14FF095
:101F9800A0434FF00112C3F81C280922C3F81428E3
:101FA800C3F8102837225A62954A10211180954AA1
:101FB8009A62D3F8002922F00302C3F800298E4A56
:101FC800402151815183D3F8102B42F0C042C3F80D
:101FD800102B9A6942F440229A611AF4005F1CD0CF
:101FE8004FF0A0434FF400525A61D3F8082812F07A
:101FF800060FC2F3410360D09E1E73427341002254
:10200800CDE90722099201214FF4807207A8ADF8A3
:102018001C208DF82030FFF7CBF91AF4006F07D099
:102028004FF0A0434FF400625A610420FFF70AFA08
:10203800BAF1000F07DA4FF0A0434FF000425A619F
:102048000520FFF7FFF91AF0040F0AD04FF0A0435C
:102058001C465D6815F0040F02D00220FFF7F2F964
:1020680065601AF0080F0AD04FF0A04308225A60A2
:102078009A6922F008029A610320FFF7E3F91AF03F
:10208800100F46D04FF0A0439A6922F010029A61CF
:102098000293029B1B6A03F00F07C3F30A19C3F3E9
:1020A8004343013B052B00F2B481DFE813F00E0037
:1020B800B30094019A00B201080002239FE7524A34
:1020C800524B1168196012685A60029B586810F0E8
:1020D8001000DED149490B78ABB1474A5389548D7A
:1020E800A34238BF2346B2F84A40B2F86A20A34256
:1020F80038BF2346934238BF13469B08029A5B00B9
:102108001733536208704FF0A042936943F01003ED
:1021180093611AF4002F40F083811AF4802F5DD068
:10212800DFF8D4B04FF000094FF0A0435FFA89F10F
:10213800D3F8183823FA09F3DF0748D54FEA4918C6
:1021480008F1A04808F51068D8F80830DE070FD560
:102158000122C8F80820B9F1000F40F0B2812C4BD9
:102168005B88002B00F0AD8111464846FEF726FA41
:10217800D8F808301D062AD54FF0A0430122D3F81D
:10218800343802FA09F21A42029220D0D8F81030F4
:102198004FEA093AC3F3C9430AF1A04A03930AF57F
:1021A800805A00230193BDF80430039A9A4200F242
:1021B8009D81D8F81030C3F3120343B94FF0A04201
:1021C8000299D2F8343823EA0103C2F8343809F105
:1021D8000109B9F1040F0BF1200BA5D10BB0BDE833
:1021E800F08F7F0107F1A047D7F8103B43F0C043B9
:1021F800C7F8103B69E700BF541B0020A811002056
:102208006C0000203001100000100050AC110020BC
:10221800121B0020AF4901EB47137801D3F8048063
:10222800B8F1000F00F0B780B9F1000F40D0B8F84E
:102238000E3098F80840B8F81000A749B8F804E03C
:10224800B8F806209BB2019380B2002C49D1834292
:10225800A3EB000438BFB8F80A00A4B23CBF241AA4
:10226800A4B2AEEB0404A4B24C4528BF4C46DDF83A
:1022780004C0F44540D2AEEB0C06D8F80000B6B264
:10228800B44202FB0C003CD814FB02F292B2FFF7F6
:10229800A0FA019B1C44A4B2A34203D8B8F80C309E
:1022A800A34203D2B8F80A301C44A4B2A8F80E40DE
:1022B800884901EB47127B01508948457FF605AFF5
:1022C80003F1A043D3F8100B13891B1A9BB2138197
:1022D800002F7FF4FAAE814A108817801B1A0B81F1
:1022E800F3E6F14521BFA9EB0E0302FB03110190B0
:1022F800744638BF4C46BAE7ACEB0E0C1FFA8CFCA0
:10230800B7E716FB02F6B6B2A4EB0E05654426F055
:10231800030B15FB02F21FFA8BFB95B25A46CDE967
:102328000301FFF756FA16F00306049930D0C6F1F8
:10233800040292B2AA42134603980A68079228BF79
:102348002B46ED1A0BF1FF3B0DF11C0EADB25844B4
:10235800B44672460CF1FF3C5FFA8CFCBCF1FF0FEF
:102368000CD1D8F80000164406EB030C421E664553
:1023780009D11844002D8CD02A4688E71EF801BBE5
:1023880000F801BFE6E716F801EB02F801EFEEE707
:10239800D8F80000EEE70B584F4C4FEA990203EBD0
:1023A8008202934213D119F003045FFA89F50AD027
:1023B800494A12681A70AD0744BF150A5D70032CAC
:1023C80004BF120C9A700B584B440B5070E72568E9
:1023D80043F8045BE5E7002F7FF477AEB9F1000F0F
:1023E8007FF473AE029B3E4A1B6C93427FF66DAE40
:1023F800029BD3F8083B48F2200213423FF465AE33
:1024080013F0200F029A0CBF01232123C2F8083BC6
:102418005BE6344B1B68DE077FF557AE00BE54E61B
:102428002C4E2E4FDFF8B88000244FF0A04204F164
:102438001001D2F81838CB40DD075FFA84F932D59D
:102448006501AB18D3F8083B18071CD519042ED51D
:10245800126C48F20803424598BF082305F1A042D0
:10246800C2F8083B0023ADF81E304FF4C063ADF846
:102478001C301D4B93E803000AAB03E9030001215C
:1024880007A8FEF795FF05F1A043D3F8082BD2075C
:1024980009D50122C3F8082B5CB93B884BB121460A
:1024A8002046FEF78BF80134042CBED135E608230C
:1024B800D4E772190123128949460020FEF7D2FF9A
:1024C800F1E7BBF81820012341F080010020FEF756
:1024D800C9FF4DE6541B002000100050121B0020BD
:1024E8000930544FF0ED00E0AC110020D8F810305E
:1024F800BBF81A205B499BB29A4228BF1A46D8F803
:10250800183001EA83039A423FF653AEDBF81460B1
:10251800002E00F08680F189338A89B29BB29942F5
:1025280038BF7089A1EB0307BFB238BF3F1AB08824
:1025380038BFBFB2B8420ED2814204D3B4890B1A55
:102548009BB29C4203D273890344C91A8BB233826B
:10255800338A07469BB297B1974228BF17469842DD
:102568001ED9C51AF2883168ADB2AF4202FB031119
:1025780019D817FB02F292B25046FFF713F9338AC3
:1025880017FA83F79AB2BFB2BA4202D8B389BB42EC
:1025980002D273891F44BFB23782019B013301E61F
:1025A8001B1A9BB2DBE73C1A1C4415FB02F5ADB2C3
:1025B80014FB02F294B225F0030292B25046CDE920
:1025C8000412FFF7EFF815F0030528D0C5F104034E
:1025D8009BB2DDE90412A34228BF23461144E41A42
:1025E80000220792A4B207AA481981420DD1316886
:1025F800013D07AA15440B4499420BD1079BCAF821
:102608000030002CBBD02246B6E711F801CB02F807
:1026180001CBEAE711F8012B05F8012FECE7316847
:10262800EFE7DBF81010930801EB8303994214D10C
:1026380012F00300D4B20AD0A4070B7848BF0B8865
:10264800032804BF897843EA0143CAF80030DBF85D
:1026580010301A44CBF810209FE751F8040BCAF841
:102668000000E3E7FCFF0300134A1368013313601B
:10267800124B1B68022B0DD8E3B113681268DBB24A
:10268800D20544BFDB43DBB20D4A33B14FF40053EC
:1026980093617047032B03D070474FF00053F7E75F
:1026A800136813F0010F064B14BF4FF400524FF09C
:1026B80000529A61704700BFB411002064010020E5
:1026C800000802402DE9804899B0234B00210A9167
:1026D8001A6C42F080521A641A6C02F080520A9204
:1026E8000A9A09911D490A6822F4404242F40042BC
:1026F8000A600A6802F440420992099A9A6802F04C
:102708000C02042A07D09A6802F00C02082A2DD17C
:102718005A6852022AD5104B1B680F4B9A6802F070
:102728000C02082A00F0BC810D4900220A600D4AFB
:1027380014681868860100F1AD810B4858600123C0
:102748000B60106804490B689D011DD413681B1A9F
:10275800022BF8D918E000BF003802400070004092
:1027680060004742501B0020195441071A68B049BD
:1027780042F480321A60AF4B18680A689703CCD4C9
:102788001A68121A642AF8D9AB4B1A6812F00E0F9D
:1027980000F08881A64B9A6842F4E0529A609A68E1
:1027A80042F460429A609A6822F0F0029A601A68CD
:1027B800940100F180819E4AA04C936803F00C03B9
:1027C800042B00F00882082B00F007829C4B9849E4
:1027D80023608B689B4A9C4DC3F303130027D25C8C
:1027E8002368D3402360FEF7CBF808970B6B43F0C0
:1027F80001030B630B6B03F001030893089B079716
:102808000B6B43F002030B630B6B03F0020307939C
:10281800079B06970B6B43F004030B630B6B03F0EA
:1028280004030693069B05970B6B43F008030B63A1
:102838000B6B03F008030593059B01264FF4005327
:10284800CDE9133613A90223284616931596FDF7EA
:10285800CDFF4FF00053AB61FDF7B6FF764B5A69D9
:10286800D207804605D5794A9A6002F144329A60C7
:102878003E46774A7749784F0B881078CC2818BF9E
:1028880012786D4A9BB29B0752693A78894625D0DF
:10289800724B1A7E012A9A4620D001234CF25030FE
:1028A8008AF81830FDF732FF38B9B9F8003023F04C
:1028B80003031B041B0CA9F8003048EA0606304342
:1028C800002310F0FF0F8AF8183007D13B7843F047
:1028D80002033B704CF25030FDF718FF564B604E28
:1028E8005A6942F001025A611A6942F000421A61BB
:1028F80032685C4B9A420FD1002319203360FEF7EF
:1029080047F8594A594B118892789A701980584B50
:1029180004221A60FEF734F8564F574B3A689A4229
:1029280040F277813A68554B9A4200F27281544BD3
:10293800316899424FF0000340F066815148336096
:1029480000214FF0010C0F264FF0020E4FF0030844
:102958000CFA01F333F4005248D121F0030202F1DA
:10296800804202F59C3201F00304A400D2F808A0CA
:1029780006FA04F90AEA090A0EFA04F4A2456FEA0B
:1029880003030FD104681C40046044681C40446081
:1029980084681C408460C4681C40C460946824EA4D
:1029A800090494602A684C0008FA04F422EA040234
:1029B8002A60CA08920002F1804202F5023201F050
:1029C8000709D2F820A04FEA890906FA09F92AEA84
:1029D8000909C2F82090EA6822EA0402EA606A68F3
:1029E80013406B60AB6823EA0404AC600131102922
:1029F800AED10F4B1A6B22F001021A631A6B22F048
:102A080002021A631A6B22F004021A631A6B22F08C
:102A180008021A631C4B00221A605A609A601B4A0B
:102A28001B4B93601B6883F308883B681847FEE7D5
:102A380000380240501B0020003C024000000020EB
:102A48000024F40077380008000802403B2A1908DF
:102A5800153C0240163C0240143C0240301B00204A
:102A6800FCFF0020B40AE8F51638000860010020D1
:102A78006401002004000108FFFF000800000908A5
:102A8800EF6926F0003C014010E000E000ED00E0B6
:102A9800000001081068001B02287FF64AAE73E6A2
:102AA8005B6871E602221A701B6803F00F039342F9
:102AB8003FF470AE7FE69A6822F0030242F0020209
:102AC8009A60A64A1468194641F28835986800F059
:102AD8000C00082854D1A24B1A6802F00F02022AEF
:102AE80053D88B6823F4E05343F480538B608B688E
:102AF80023F460438B608B6803F00C03042B68D0CD
:102B0800082B4BD09748984B984A9B68C3F30313FC
:102B1800D35CD840964B18604FF47A73B0FBF3F04F
:102B28000138B0F1807FBFF446AE924D924A2C68CE
:102B380092495060F02381F82330072000230F2C9E
:102B4800936010603FF637AECA68C2F30222811A5A
:102B5800042902F1040028BF0421062898BF1A4658
:102B68004FF0FF3303FA01F388BF033A24EA030363
:102B780093401B01814ADBB282F823302C601AE6AD
:102B88001068001BA842A1D915E602221A701B681A
:102B980003F00F0393427FF40EAEA2E74A684B6836
:102BA800496813F4800314BF75486E48C1F388114F
:102BB80018BF002302F03F02A1FB0001FDF7F0FA65
:102BC800694B5B68C3F3014301335B00B0FBF3F06F
:102BD80099E76B4897E76A4BF9E55068516852687E
:102BE8004002C2F388124CBF654B5E4B01F03F01B7
:102BF800B3FBF1F353435C4A5268C2F3014201321A
:102C08005200B3FBF2F3E2E55E4A914240F0DE8007
:102C180033604FF4C0535C4813934FF00308022508
:102C280000260A2713A9CDE91456CDF8588017971E
:102C3800FDF7DCFD4FF4806C1223CDE913C3524835
:102C48001797012313A9CDE91538FDF7CFFD464B9A
:102C58005A6B42F080025A630B965A6C42F48042D7
:102C68005A645B6C4FF0A04203F480430B930B9BB8
:102C7800936B43F400139363444B4FF400221A60A0
:102C8800434A4FF4801313642B4611699382C1F3AE
:102C98000800490A002818BF01310B449BB20136CD
:102CA800591E032ED18202F11802EED1394B01933D
:102CB8001D78002D3ED12B222946374800F09CFD77
:102CC800364A138955825B009BB2591E5B42D381F9
:102CD800334B95821A60334B118223B13248AFF3DC
:102CE8000080324B1860304E00252846FEF7FCF86D
:102CF8000368984733780135EDB20133AB42F4DA13
:102D08004FF0A0432A491A6C120C12048A4271D05F
:102D180028498A426ED001F580318A426AD0264B12
:102D28001B68D80700D500BE244B08229A60019A78
:102D380001231370224B022201201A60FDF728FE9E
:102D4800204A214B1188927819809A70019B1B7830
:102D58000093002B40F02381FEE700BF501B0020AA
:102D6800003C02400024F400003802407738000894
:102D7800000000206800002010E000E000ED00E006
:102D880040787D01EF6916F000000240D000002075
:102D98002000002023120020F81100200400002049
:102DA80024120020000000007400002070000020A1
:102DB8000000544F00003155F0ED00E000E100E064
:102DC800640100201338000860010020B34C326011
:102DD80001202360FDF7DCFD4FF40053AB6123684D
:102DE800B3F5FA7FFBD3FDF7CBFD4FF00053AB6192
:102DF8000023A3E5D3F8042842F00202C3F804280C
:102E0800DA6842F04002DA609A6B42F480329A63E0
:102E18001A6942F001021A614FF0A0421369D907FA
:102E2800FCD44FF0A0421369002BFCDAD36823F4DA
:102E3800705343F4A053D3602268994B9A425ED2F0
:102E4800984B9A425DD8984B9A425CD2974B9A42DB
:102E58005BD8A3F5DB13A3F5BA539A4257D8A3F569
:102E6800B713A3F558739A4253D8914B9A4252D24A
:102E7800904B9A4251D2904B9A422CBF0E220F226D
:102E88004FF0A043D96821F4705141EA8222DA60F8
:102E9800D3F8002842F00302C3F80028D3F8002E24
:102EA80022F00F02C3F8002EDA6842F00702DA6057
:102EB800DA6822F0C04242F08042DA601A6822F0F2
:102EC800D00242F0C0021A60D3F8002842F004028F
:102ED800C3F800285A6959690A435A615A685968F7
:102EE8000A435A60754A9A619A6842F001029A60E8
:102EF800D3F8042822F00202C3F8042814E70622B3
:102F0800BEE70722BCE70822BAE70922B8E70A2287
:102F1800B6E70B22B4E70C22B2E70D22B0E7091A94
:102F280089B28842FBD9628963680CA802FB013127
:102F380000F054FC009AA38A99B212FA83F39BB268
:102F4800994202D8218A994202D2E1890B449BB264
:102F5800A3822378012B02D1594B08219960002ABA
:102F68003FF4F4AE9DF83130013B072B00F271833A
:102F7800DFE813F008004400F703CD03DC0350003A
:102F88005003F9039DF83000FDF7FEFF14224D4869
:102F9800002100F031FC4C4B9DF834209A704B4BCB
:102FA8001C682378012B07D1454B0822C3F88820D9
:102FB800BFF34F8FBFF36F8F628AA18A92B289B233
:102FC8008A4238BFE089A2EB01039BB238BF1B1AC3
:102FD800208938BF9BB298420CD2824204D3258AFA
:102FE800131A9BB29D4203D2E3890344D21A93B2C7
:102FF800A3820346002B94D11A469CE79DF8300023
:10300800FDF7C2FF142200212E4800F0F5FBFEF761
:1030180037FCC4E72C4C9DF834802378DFF8A49063
:103028009DF8305043F001032370E37F6FF30003F2
:10303800E377E37F6FF38203E37794F820306FF34D
:10304800000384F8203094F8203008F0600B6FF308
:1030580082030021BBF1600F84F82030C9F81010FA
:1030680026460BD11A4B1B68DC0700D500BE002092
:10307800FDF73BFA8020FDF738FA90E7BBF1400FE7
:103088002AD1144B002BF2D00DAA2846C9F81030CB
:10309800AFF30080002882D1E9E700BFB411002017
:1030A8000048E801DF9DA30100366E013FA44C01F2
:1030B800807306010024F400C0E1E40016380080A3
:1030C80000E100E078000020F81100202412002020
:1030D800F0ED00E00000000008F01F08B8F1010F53
:1030E80000F0FA81B8F1020F00F01E82B8F1000F6B
:1030F800B8D1BBF1200F10D19DF838300F2BB6D8BE
:103108001C44E078FDF7F0FE0028B0D00DAA00F1CD
:103118000C012846FDF762FCBCE7BBF1000FA1D10A
:103128009DF83530092B9DD801A151F823F000BF37
:103138008B340008793400086D30000865340008C5
:103148006D30000861310008F73200086D30000862
:1031580099310008AD310008DDE90D010022C9E907
:103168000001C9E902224FF0A0419DF83600D1F8CC
:10317800003823F4FE6343EA0013C1F800388020C6
:103188001146FDF797FA237843F00203237006E708
:1031980063788DF84C30012313AA0DA92846FDF752
:1031A80049FFFCE69DF836806378984500F08480F6
:1031B80063782BB34FF0A042B7494FF00113C2F820
:1031C8001C380023C2F8203B4B85C2F820394B87B6
:1031D800C2F8403BA1F84A30C2F84039A1F85A3049
:1031E800C2F8603BA1F86A30C2F86039A1F87A30B9
:1031F800AA4BA778102228461A80FDF7C5FEA770AB
:10320800B8F1000F58D02378DFF8C8B223F03003A4
:1032180043F0100323704FF0010A9BF80130042B90
:1032280011D09F4B1B68DB077FF51CAF00BE19E769
:1032380043780B2B03BF037890F803A0C0184FF016
:10324800010A8346E9E7974BA3EB0B0292B24FF0D2
:103258000009954B1B785FFA89F70133BB42E0DB25
:1032680038460292FDF740FE029A8368594628467E
:1032780098470828029A37D9824235D300220BE0B2
:103288009BF802C0634456FA83F3013293F803C0F3
:10329800BCF1FF0FC5D1DF70D3B25345F0D358440A
:1032A800584510D8804B1B7801339F42B9DC7D4BC1
:1032B8009842BDD3FDF738FE84F801800DA9284651
:1032C800FDF762FC6BE69BF80130052B08D19BF8F3
:1032D800022002F07F0306EB430303EBD213DF74F3
:1032E8009BF800309B44DBE709F10109B1E7BDF821
:1032F8003600030A5A1EC0B20E2A3FF6B8AE01A124
:1033080051F822F0493300086F3300088D33000864
:1033180077300008773000084D3400086F33000814
:1033280077300008773000087730000877300008D9
:1033380077300008773000087730000857330008E6
:103348005A4A12230DA92846FDF774FEA2E6584BE7
:10335800002B3FF48CAEAFF30080024600283FF408
:1033680081AE5388EEE7022B01D1524AF9E7524B5E
:10337800002B3FF47CAEAFF3008000283FF472AE20
:103388000246EEE7C8B1032823D006283FF66FAE01
:103398004A4B53F820402046FCF7FAFEC3B21F2BD5
:1033A80028BF1F23464A2046E118884202F102023C
:1033B80008D010F8014B1480F7E7424A404B1288B6
:1033C8005A8001235B003E4A023343F44071118066
:1033D800B8E73D4A3A4E07CA0FAB83E807004FF0FB
:1033E800000E3A4A13AF02F110083C46C146106875
:1033F8005168BC46ACE80300083242456746F6D13E
:1034080013F8017B18A907F00F020A4412F8142CCC
:10341800B2802E4A10685168A446ACE8030008320E
:103428004A456446F6D118AA02EB17170EF1010EA9
:1034380017F8142C7280BEF10C0F06F10406D0D1D7
:103448001823BFE7224B002B3FF411AEAFF30080E7
:10345800024600283FF40BAE037873E7BDF8363018
:10346800012B7FF404AE237843F00803237025E78B
:10347800BDF83630012B7FF4FAAD23786FF3C30320
:10348800F4E72378C3F340129B0803F002031343C5
:10349800ADF84C3002237FE6541B00206C0000205E
:1034A800F0ED00E0383900087400002038390008D1
:1034B80000000000F838000800000000383B000851
:1034C8008C000020C5380008107AFF1F313800082A
:1034D80000000000013900089DF838300F2B3FF636
:1034E800C6AD1C44E078FDF7FFFC00283FF4BFADF3
:1034F80000F10C010DAA2846FDF770FA00287FF4A8
:103508004EAD9DF8343013F060037FF4B0AD9DF8F4
:103518003520A2F10A0101293FF6A9AD0A2AC9F806
:1035280010307FF4CBAE34E69DF8381001F07F02FE
:10353800052A3FF697AD04EB420707EBD117CB09F5
:103548000393F87C53000293FDF7CEFC039B82465D
:10355800BBF1000F06D000283FF489AD0DAA00F199
:103568000C01D6E59DF8350000F0FD0CBCF1010F0B
:1035780006D000287FF476ADFB7FC3F3400387E7CE
:10358800BDF836C0BCF1000F20D101283ED1F97F2B
:103598008F071BD512B2520102F1A0424BB3D2F8E9
:1035A800001921F40011C2F80019D2F8001941F0ED
:1035B8008051C2F80019029A16443344DA7F6FF337
:1035C8004102DA77DA7F6FF30002DA77BAF1000F97
:1035D8003FF4E5AC0DAA0AF10C012846FDF7FEF907
:1035E8000023C9F8103094F82030DE073FF5D7AC37
:1035F80064E6D2F8001B21F40011C2F8001BD2F8CF
:10360800001B41F08051C2F8001BD4E72846FDF7A3
:10361800EDF9DBE79DF83410564B01F07F0503EB1D
:10362800450303EBD1134FEAD11CD87F6FF3000099
:10363800D877D87F6FF38200D877002D53D14E4CBE
:103648009DF8306023780E9FBCEBD31F214615D020
:1036580037B14A4B1B68DB077FF5A1AC00BE9EE47F
:10366800474B13B13046AFF300802369002B3FF47A
:1036780096AC414A02213046984790E494F90030CC
:10368800002B07DBA06800283FF489AC3D493A4687
:1036980000F0A4F8A268E3893A443B44A260E288B7
:1036A8009BB29A42E38101D03F2F18D823697BB996
:1036B80094F90030002B4FF000031A46B4BF294696
:1036C80080213046FDF7D2F900287FF468ACC0E7C6
:1036D800294A0121304698470028E9D1C8E43046F4
:1036E800FDF77AFCF0E7D87CFDF7FEFB38B9234BF1
:1036F8001B68D8077FF52AAB00BEFFF727BB046914
:103708000E9B9DF835209DF83000A04747E4194BE3
:103718001A78D1077FF543AC1B4A002A3FF43FAC27
:103728001878C0F3C000AFF3008038E4114B1B7861
:10373800DA077FF534AC154B002B3FF430ACAFF310
:1037480000802CE4FDF7D0FB436913B19DF83000ED
:10375800984701340E4B1B78E0B201338342F1DA0B
:103768001DE40024F6E70D9B002B3FF418AC0E98DF
:10377800984714E4F811002078000020F0ED00E0EC
:1037880000000000B8110020000000000000000048
:103798007400002070B50D4D0D4C641BA41000265C
:1037A800A64209D10B4D0C4CFEF7C6FB641BA410B6
:1037B8000026A64205D170BD55F8043B984701364E
:1037C800EEE755F8043B98470136F2E75C3B000802
:1037D8005C3B00085C3B00085C3B00080A449142E3
:1037E80000F1FF3300D1704710B511F8014B03F811
:1037F800014F9142F9D110BD02440346934200D1D2
:08380800704703F8011BF9E70A
:1038100000FF00FF0000CC660041646166727569BC
:10382000740055463220426F6F746C6F616465722C
:10383000003031323334353637383941424344452C
:103840004600426173746172646B62004368617226
:10385000796264697320426C61636B50696C6C00BF
:1038600055463200484632204849440048463220F6
:10387000576562555342000000000000000000013F
:1038800002030406070809EB3C90554632205546D2
:10389000322000020101000240000000F802010194
:1038A0000001000000000009010100800029420021
:1038B0004200436861727962646973000046415452
:1038C0003136202020090400690F0008590F000834
:1038D000B10D0008AD100008B51800080000000088
:1038E000890F0008790F0008390E0008C911000877
:1038F000310B00080000000009024000020100A096
:1039000032090400000208065004070501024000C5
:1039100000070581024000000904010002030000C5
:1039200005092111010001222200070502034000C0
:103930000A0705820340000A12010002000000404D
:103940009B2369000001010203010600FF0901A198
:10395000010902150026FF00750895408102090340
:10396000150026FF00750895409102C03C21646F48
:1039700063747970652068746D6C3E0A3C68746D80
:103980006C3E3C626F64793E3C7363726970743E56
:103990000A6C6F636174696F6E2E7265706C61631F
:1039A00065282268747470733A2F2F67697468757C
:1039B000622E636F6D2F426173746172646B622F4C
:1039C00043686172796264697322293B0A3C2F73F0
:1039D00063726970743E3C2F626F64793E3C2F685D
:1039E000746D6C3E0A0054696E7955463220426F00
:1039F0006F746C6F6164657220302E382E302D34F8
:103A0000342D67303961653432392D6469727479C7
:103A1000202D2073742F636D7369735F64657669FD
:103A200063655F6634202876322E362E342D312D94
:103A30006732363135653836292073742F73746DCB
:103A40003332663478785F68616C5F64726976657A
:103A500072202876312E372E39292028302E313207
:103A60002E302D3238322D676135393232383230CE
:103A7000290D0A4D6F64656C3A204261737461725E
:103A8000646B622043686172796264697320426C7E
:103A900061636B50696C6C0D0A426F6172642D49F1
:103AA000443A204368617279626469732053544DCB
:103AB00033324634313120426C61636B50696C6C37
:103AC0000D0A446174653A20466562203131203226
:103AD0003032320D0A0000000040000000400000BB
:103AE0000040000000400000000001000000020053
:103AF00000000200000002000000020000000200BE
:103B00000000020000000200004000000040000031
:103B10000040000000400000000001000000020022
:103B2000000002000000020000000200000002008D
:103B30000000020000000200C538000842380008FA
:103B40004C380008001B002060380008643800086A
:043B50006C380008C5
:083B540084C6FF7F01000000A0
:103B5C000024F400010000002812002010000C00CA
:103B6C000000E0FF1F00000000000000010000004A
:103B7C00494E464F5F55463254585400E6390008BA
:103B8C00EF00000000000000494E44455820202062
:103B9C0048544D006C39000879000000000000000A
:103BAC0043555252454E54205546320000000000F9
:0C3BBC00000000000000000010000000ED
:04000005080004A14A
:00000001FF
